{
  "address": "0x0a50e8adFc403D2A94b57a939C4A9e80da57DFb9",
  "abi": [
    {
      "inputs": [
        {
          "internalType": "address",
          "name": "priceFeedAddress",
          "type": "address"
        }
      ],
      "stateMutability": "nonpayable",
      "type": "constructor"
    },
    {
      "inputs": [],
      "name": "Unauthorized",
      "type": "error"
    },
    {
      "stateMutability": "payable",
      "type": "fallback"
    },
    {
      "inputs": [],
      "name": "MINIMUM_USD",
      "outputs": [
        {
          "internalType": "uint256",
          "name": "",
          "type": "uint256"
        }
      ],
      "stateMutability": "view",
      "type": "function"
    },
    {
      "inputs": [],
      "name": "fund",
      "outputs": [],
      "stateMutability": "payable",
      "type": "function"
    },
    {
      "inputs": [
        {
          "internalType": "address",
          "name": "",
          "type": "address"
        }
      ],
      "name": "funderToFunded",
      "outputs": [
        {
          "internalType": "uint256",
          "name": "",
          "type": "uint256"
        }
      ],
      "stateMutability": "view",
      "type": "function"
    },
    {
      "inputs": [
        {
          "internalType": "uint256",
          "name": "",
          "type": "uint256"
        }
      ],
      "name": "funders",
      "outputs": [
        {
          "internalType": "address",
          "name": "",
          "type": "address"
        }
      ],
      "stateMutability": "view",
      "type": "function"
    },
    {
      "inputs": [],
      "name": "i_owner",
      "outputs": [
        {
          "internalType": "address",
          "name": "",
          "type": "address"
        }
      ],
      "stateMutability": "view",
      "type": "function"
    },
    {
      "inputs": [],
      "name": "priceFeed",
      "outputs": [
        {
          "internalType": "contract AggregatorV3Interface",
          "name": "",
          "type": "address"
        }
      ],
      "stateMutability": "view",
      "type": "function"
    },
    {
      "inputs": [],
      "name": "withdraw",
      "outputs": [],
      "stateMutability": "nonpayable",
      "type": "function"
    },
    {
      "stateMutability": "payable",
      "type": "receive"
    }
  ],
  "transactionHash": "0xb1b9c66e575e394fd73c66db0b604b196b483052919fc6526641eb24502fdf2c",
  "args": [
    "0xD4a33860578De61DBAbDc8BFdb98FD742fA7028e"
  ],
  "numDeployments": 1,
  "solcInputHash": "43d06251d0d8d6337e2ce09be21b0ce1",
  "bytecode": "0x60a060405234801561001057600080fd5b50604051610f0f380380610f0f83398181016040528101906100329190610110565b80600260006101000a81548173ffffffffffffffffffffffffffffffffffffffff021916908373ffffffffffffffffffffffffffffffffffffffff1602179055503373ffffffffffffffffffffffffffffffffffffffff1660808173ffffffffffffffffffffffffffffffffffffffff16815250505061013d565b600080fd5b600073ffffffffffffffffffffffffffffffffffffffff82169050919050565b60006100dd826100b2565b9050919050565b6100ed816100d2565b81146100f857600080fd5b50565b60008151905061010a816100e4565b92915050565b600060208284031215610126576101256100ad565b5b6000610134848285016100fb565b91505092915050565b608051610db061015f600039600081816102e501526105520152610db06000f3fe6080604052600436106100745760003560e01c8063b60d42881161004e578063b60d4288146100fa578063dba6335f14610104578063dc0d3dff1461012f578063df17e9a51461016c57610083565b80633ccfd60b1461008d5780636b69a592146100a4578063741bef1a146100cf57610083565b36610083576100816101a9565b005b61008b6101a9565b005b34801561009957600080fd5b506100a26102e3565b005b3480156100b057600080fd5b506100b961051d565b6040516100c69190610752565b60405180910390f35b3480156100db57600080fd5b506100e461052a565b6040516100f191906107ec565b60405180910390f35b6101026101a9565b005b34801561011057600080fd5b50610119610550565b6040516101269190610828565b60405180910390f35b34801561013b57600080fd5b5061015660048036038101906101519190610874565b610574565b6040516101639190610828565b60405180910390f35b34801561017857600080fd5b50610193600480360381019061018e91906108cd565b6105b3565b6040516101a09190610752565b60405180910390f35b681b1ae4d6e2ef5000006101e8600260009054906101000a900473ffffffffffffffffffffffffffffffffffffffff16346105cb90919063ffffffff16565b1015610229576040517f08c379a000000000000000000000000000000000000000000000000000000000815260040161022090610957565b60405180910390fd5b346000803373ffffffffffffffffffffffffffffffffffffffff1673ffffffffffffffffffffffffffffffffffffffff168152602001908152602001600020600082825461027791906109a6565b925050819055506001339080600181540180825580915050600190039060005260206000200160009091909190916101000a81548173ffffffffffffffffffffffffffffffffffffffff021916908373ffffffffffffffffffffffffffffffffffffffff160217905550565b7f000000000000000000000000000000000000000000000000000000000000000073ffffffffffffffffffffffffffffffffffffffff163373ffffffffffffffffffffffffffffffffffffffff1614610368576040517f82b4290000000000000000000000000000000000000000000000000000000000815260040160405180910390fd5b60005b60018054905081101561040d57600080600060018481548110610391576103906109da565b5b9060005260206000200160009054906101000a900473ffffffffffffffffffffffffffffffffffffffff1673ffffffffffffffffffffffffffffffffffffffff1673ffffffffffffffffffffffffffffffffffffffff16815260200190815260200160002081905550808061040590610a09565b91505061036b565b50600067ffffffffffffffff81111561042957610428610a51565b5b6040519080825280602002602001820160405280156104575781602001602082028036833780820191505090505b506001908051906020019061046d929190610692565b5060003373ffffffffffffffffffffffffffffffffffffffff164760405161049490610ab1565b60006040518083038185875af1925050503d80600081146104d1576040519150601f19603f3d011682016040523d82523d6000602084013e6104d6565b606091505b505090508061051a576040517f08c379a000000000000000000000000000000000000000000000000000000000815260040161051190610b38565b60405180910390fd5b50565b681b1ae4d6e2ef50000081565b600260009054906101000a900473ffffffffffffffffffffffffffffffffffffffff1681565b7f000000000000000000000000000000000000000000000000000000000000000081565b6001818154811061058457600080fd5b906000526020600020016000915054906101000a900473ffffffffffffffffffffffffffffffffffffffff1681565b60006020528060005260406000206000915090505481565b6000806105d783610601565b9050678ac7230489e8000084826105ee9190610b58565b6105f89190610bc9565b91505092915050565b6000808273ffffffffffffffffffffffffffffffffffffffff1663feaf968c6040518163ffffffff1660e01b815260040160a060405180830381865afa15801561064f573d6000803e3d6000fd5b505050506040513d601f19601f820116820180604052508101906106739190610c87565b5050509150506402540be4008161068a9190610d02565b915050919050565b82805482825590600052602060002090810192821561070b579160200282015b8281111561070a5782518260006101000a81548173ffffffffffffffffffffffffffffffffffffffff021916908373ffffffffffffffffffffffffffffffffffffffff160217905550916020019190600101906106b2565b5b509050610718919061071c565b5090565b5b8082111561073557600081600090555060010161071d565b5090565b6000819050919050565b61074c81610739565b82525050565b60006020820190506107676000830184610743565b92915050565b600073ffffffffffffffffffffffffffffffffffffffff82169050919050565b6000819050919050565b60006107b26107ad6107a88461076d565b61078d565b61076d565b9050919050565b60006107c482610797565b9050919050565b60006107d6826107b9565b9050919050565b6107e6816107cb565b82525050565b600060208201905061080160008301846107dd565b92915050565b60006108128261076d565b9050919050565b61082281610807565b82525050565b600060208201905061083d6000830184610819565b92915050565b600080fd5b61085181610739565b811461085c57600080fd5b50565b60008135905061086e81610848565b92915050565b60006020828403121561088a57610889610843565b5b60006108988482850161085f565b91505092915050565b6108aa81610807565b81146108b557600080fd5b50565b6000813590506108c7816108a1565b92915050565b6000602082840312156108e3576108e2610843565b5b60006108f1848285016108b8565b91505092915050565b600082825260208201905092915050565b7f496e73756666696369656e742066756e64730000000000000000000000000000600082015250565b60006109416012836108fa565b915061094c8261090b565b602082019050919050565b6000602082019050818103600083015261097081610934565b9050919050565b7f4e487b7100000000000000000000000000000000000000000000000000000000600052601160045260246000fd5b60006109b182610739565b91506109bc83610739565b92508282019050808211156109d4576109d3610977565b5b92915050565b7f4e487b7100000000000000000000000000000000000000000000000000000000600052603260045260246000fd5b6000610a1482610739565b91507fffffffffffffffffffffffffffffffffffffffffffffffffffffffffffffffff8203610a4657610a45610977565b5b600182019050919050565b7f4e487b7100000000000000000000000000000000000000000000000000000000600052604160045260246000fd5b600081905092915050565b50565b6000610a9b600083610a80565b9150610aa682610a8b565b600082019050919050565b6000610abc82610a8e565b9150819050919050565b7f536f6d657468696e672077656e742077726f6e6720776974682074686520747260008201527f616e73616374696f6e0000000000000000000000000000000000000000000000602082015250565b6000610b226029836108fa565b9150610b2d82610ac6565b604082019050919050565b60006020820190508181036000830152610b5181610b15565b9050919050565b6000610b6382610739565b9150610b6e83610739565b9250828202610b7c81610739565b91508282048414831517610b9357610b92610977565b5b5092915050565b7f4e487b7100000000000000000000000000000000000000000000000000000000600052601260045260246000fd5b6000610bd482610739565b9150610bdf83610739565b925082610bef57610bee610b9a565b5b828204905092915050565b600069ffffffffffffffffffff82169050919050565b610c1981610bfa565b8114610c2457600080fd5b50565b600081519050610c3681610c10565b92915050565b6000819050919050565b610c4f81610c3c565b8114610c5a57600080fd5b50565b600081519050610c6c81610c46565b92915050565b600081519050610c8181610848565b92915050565b600080600080600060a08688031215610ca357610ca2610843565b5b6000610cb188828901610c27565b9550506020610cc288828901610c5d565b9450506040610cd388828901610c72565b9350506060610ce488828901610c72565b9250506080610cf588828901610c27565b9150509295509295909350565b6000610d0d82610c3c565b9150610d1883610c3c565b9250828202610d2681610c3c565b91507f80000000000000000000000000000000000000000000000000000000000000008414600084121615610d5e57610d5d610977565b5b8282058414831517610d7357610d72610977565b5b509291505056fea26469706673582212203e0fab8d0be7c7965b9a46d704921b62d46d772934067df1698501fd37bf4adc64736f6c63430008110033",
  "devdoc": {
    "kind": "dev",
    "methods": {},
    "version": 1
  },
  "userdoc": {
    "kind": "user",
    "methods": {},
    "version": 1
  },
  "storageLayout": {
    "storage": [
      {
        "astId": 57,
        "contract": "contracts/FundMe.sol:FundMe",
        "label": "funderToFunded",
        "offset": 0,
        "slot": "0",
        "type": "t_mapping(t_address,t_uint256)"
      },
      {
        "astId": 65,
        "contract": "contracts/FundMe.sol:FundMe",
        "label": "funders",
        "offset": 0,
        "slot": "1",
        "type": "t_array(t_address)dyn_storage"
      },
      {
        "astId": 70,
        "contract": "contracts/FundMe.sol:FundMe",
        "label": "priceFeed",
        "offset": 0,
        "slot": "2",
        "type": "t_contract(AggregatorV3Interface)45"
      }
    ],
    "types": {
      "t_address": {
        "encoding": "inplace",
        "label": "address",
        "numberOfBytes": "20"
      },
      "t_array(t_address)dyn_storage": {
        "base": "t_address",
        "encoding": "dynamic_array",
        "label": "address[]",
        "numberOfBytes": "32"
      },
      "t_contract(AggregatorV3Interface)45": {
        "encoding": "inplace",
        "label": "contract AggregatorV3Interface",
        "numberOfBytes": "20"
      },
      "t_mapping(t_address,t_uint256)": {
        "encoding": "mapping",
        "key": "t_address",
        "label": "mapping(address => uint256)",
        "numberOfBytes": "32",
        "value": "t_uint256"
      },
      "t_uint256": {
        "encoding": "inplace",
        "label": "uint256",
        "numberOfBytes": "32"
      }
    }
  }
}